{
  "_format": "hh-sol-artifact-1",
  "contractName": "CheesecakePortal",
  "sourceName": "contracts/CheesecakePortal.sol",
  "abi": [
    {
      "inputs": [],
      "stateMutability": "payable",
      "type": "constructor"
    },
    {
      "inputs": [],
      "name": "CheesecakePortalError",
      "type": "error"
    },
    {
      "anonymous": false,
      "inputs": [
        {
          "indexed": false,
          "internalType": "string",
          "name": "name",
          "type": "string"
        },
        {
          "indexed": false,
          "internalType": "string",
          "name": "message",
          "type": "string"
        },
        {
          "indexed": false,
          "internalType": "uint256",
          "name": "cakeSize",
          "type": "uint256"
        },
        {
          "indexed": true,
          "internalType": "address",
          "name": "from",
          "type": "address"
        },
        {
          "indexed": false,
          "internalType": "uint256",
          "name": "timestamp",
          "type": "uint256"
        }
      ],
      "name": "NewCheesecake",
      "type": "event"
    },
    {
      "inputs": [],
      "name": "getAllCheesecakes",
      "outputs": [
        {
          "components": [
            {
              "internalType": "string",
              "name": "name",
              "type": "string"
            },
            {
              "internalType": "string",
              "name": "message",
              "type": "string"
            },
            {
              "internalType": "uint256",
              "name": "cakeSize",
              "type": "uint256"
            },
            {
              "internalType": "address",
              "name": "giver",
              "type": "address"
            },
            {
              "internalType": "uint256",
              "name": "timestamp",
              "type": "uint256"
            }
          ],
          "internalType": "struct CheesecakePortal.Cheesecake[]",
          "name": "",
          "type": "tuple[]"
        }
      ],
      "stateMutability": "view",
      "type": "function"
    },
    {
      "inputs": [],
      "name": "getCakeCount",
      "outputs": [
        {
          "internalType": "uint256[3]",
          "name": "",
          "type": "uint256[3]"
        }
      ],
      "stateMutability": "view",
      "type": "function"
    },
    {
      "inputs": [],
      "name": "owner",
      "outputs": [
        {
          "internalType": "address payable",
          "name": "",
          "type": "address"
        }
      ],
      "stateMutability": "view",
      "type": "function"
    },
    {
      "inputs": [
        {
          "internalType": "string",
          "name": "_message",
          "type": "string"
        },
        {
          "internalType": "string",
          "name": "_name",
          "type": "string"
        },
        {
          "internalType": "uint256",
          "name": "_cakeSize",
          "type": "uint256"
        }
      ],
      "name": "sendCheesecake",
      "outputs": [],
      "stateMutability": "payable",
      "type": "function"
    },
    {
      "inputs": [],
      "name": "throwError",
      "outputs": [],
      "stateMutability": "pure",
      "type": "function"
    }
  ],
  "bytecode": "0x6080604052620000336040518060600160405280603f8152602001620012f2603f91396200007a60201b6200064b1760201c565b33600360006101000a81548173ffffffffffffffffffffffffffffffffffffffff021916908373ffffffffffffffffffffffffffffffffffffffff1602179055506200020e565b6200011a8160405160240162000091919062000187565b6040516020818303038152906040527f41304fac000000000000000000000000000000000000000000000000000000007bffffffffffffffffffffffffffffffffffffffffffffffffffffffff19166020820180517bffffffffffffffffffffffffffffffffffffffffffffffffffffffff83818316178352505050506200011d60201b60201c565b50565b60008151905060006a636f6e736f6c652e6c6f679050602083016000808483855afa5050505050565b60006200015382620001ab565b6200015f8185620001b6565b935062000171818560208601620001c7565b6200017c81620001fd565b840191505092915050565b60006020820190508181036000830152620001a3818462000146565b905092915050565b600081519050919050565b600082825260208201905092915050565b60005b83811015620001e7578082015181840152602081019050620001ca565b83811115620001f7576000848401525b50505050565b6000601f19601f8301169050919050565b6110d4806200021e6000396000f3fe60806040526004361061004a5760003560e01c80632f7643a81461004f578063494dcfa5146100665780634f62bc56146100915780638da5cb5b146100bc57806393867e55146100e7575b600080fd5b34801561005b57600080fd5b50610064610103565b005b34801561007257600080fd5b5061007b610135565b6040516100889190610c8b565b60405180910390f35b34801561009d57600080fd5b506100a6610322565b6040516100b39190610cad565b60405180910390f35b3480156100c857600080fd5b506100d161036d565b6040516100de9190610c70565b60405180910390f35b61010160048036038101906100fc9190610987565b610393565b005b6040517f7380804600000000000000000000000000000000000000000000000000000000815260040160405180910390fd5b60606004805480602002602001604051908101604052809291908181526020016000905b8282101561031957838290600052602060002090600502016040518060a001604052908160008201805461018c90610f83565b80601f01602080910402602001604051908101604052809291908181526020018280546101b890610f83565b80156102055780601f106101da57610100808354040283529160200191610205565b820191906000526020600020905b8154815290600101906020018083116101e857829003601f168201915b5050505050815260200160018201805461021e90610f83565b80601f016020809104026020016040519081016040528092919081815260200182805461024a90610f83565b80156102975780601f1061026c57610100808354040283529160200191610297565b820191906000526020600020905b81548152906001019060200180831161027a57829003601f168201915b50505050508152602001600282015481526020016003820160009054906101000a900473ffffffffffffffffffffffffffffffffffffffff1673ffffffffffffffffffffffffffffffffffffffff1673ffffffffffffffffffffffffffffffffffffffff16815260200160048201548152505081526020019060010190610159565b50505050905090565b61032a610845565b6000600380602002604051908101604052809291908260038015610363576020028201915b81548152602001906001019080831161034f575b5050505050905090565b600360009054906101000a900473ffffffffffffffffffffffffffffffffffffffff1681565b6001600082600381106103cf577f4e487b7100000000000000000000000000000000000000000000000000000000600052603260045260246000fd5b0160008282546103df9190610e91565b9250508190555060046040518060a001604052808481526020018581526020018381526020013373ffffffffffffffffffffffffffffffffffffffff168152602001428152509080600181540180825580915050600190039060005260206000209060050201600090919091909150600082015181600001908051906020019061046a929190610867565b506020820151816001019080519060200190610487929190610867565b506040820151816002015560608201518160030160006101000a81548173ffffffffffffffffffffffffffffffffffffffff021916908373ffffffffffffffffffffffffffffffffffffffff1602179055506080820151816004015550506105246040518060400160405280601381526020017f53656e64696e67206f7665722025642057454900000000000000000000000000815250346106e4565b6000600360009054906101000a900473ffffffffffffffffffffffffffffffffffffffff1673ffffffffffffffffffffffffffffffffffffffff163460405161056c90610c5b565b60006040518083038185875af1925050503d80600081146105a9576040519150601f19603f3d011682016040523d82523d6000602084013e6105ae565b606091505b505090506105f16040518060400160405280600881526020017f537563636573733f00000000000000000000000000000000000000000000000081525082610780565b3373ffffffffffffffffffffffffffffffffffffffff167f2c68131a623b74f305db8e94775036d72f167d4bfdfe773a02856cc55592905c8486854260405161063d9493929190610d1a565b60405180910390a250505050565b6106e18160405160240161065f9190610cc8565b6040516020818303038152906040527f41304fac000000000000000000000000000000000000000000000000000000007bffffffffffffffffffffffffffffffffffffffffffffffffffffffff19166020820180517bffffffffffffffffffffffffffffffffffffffffffffffffffffffff838183161783525050505061081c565b50565b61077c82826040516024016106fa929190610d6d565b6040516020818303038152906040527f9710a9d0000000000000000000000000000000000000000000000000000000007bffffffffffffffffffffffffffffffffffffffffffffffffffffffff19166020820180517bffffffffffffffffffffffffffffffffffffffffffffffffffffffff838183161783525050505061081c565b5050565b6108188282604051602401610796929190610cea565b6040516020818303038152906040527fc3b55635000000000000000000000000000000000000000000000000000000007bffffffffffffffffffffffffffffffffffffffffffffffffffffffff19166020820180517bffffffffffffffffffffffffffffffffffffffffffffffffffffffff838183161783525050505061081c565b5050565b60008151905060006a636f6e736f6c652e6c6f679050602083016000808483855afa5050505050565b6040518060600160405280600390602082028036833780820191505090505090565b82805461087390610f83565b90600052602060002090601f01602090048101928261089557600085556108dc565b82601f106108ae57805160ff19168380011785556108dc565b828001600101855582156108dc579182015b828111156108db5782518255916020019190600101906108c0565b5b5090506108e991906108ed565b5090565b5b808211156109065760008160009055506001016108ee565b5090565b600061091d61091884610dc2565b610d9d565b90508281526020810184848401111561093557600080fd5b610940848285610f41565b509392505050565b600082601f83011261095957600080fd5b813561096984826020860161090a565b91505092915050565b60008135905061098181611087565b92915050565b60008060006060848603121561099c57600080fd5b600084013567ffffffffffffffff8111156109b657600080fd5b6109c286828701610948565b935050602084013567ffffffffffffffff8111156109df57600080fd5b6109eb86828701610948565b92505060406109fc86828701610972565b9150509250925092565b6000610a128383610bc0565b905092915050565b6000610a268383610c3d565b60208301905092915050565b610a3b81610ef9565b82525050565b610a4a81610ee7565b82525050565b6000610a5b82610e0d565b610a658185610e48565b935083602082028501610a7785610df3565b8060005b85811015610ab35784840389528151610a948582610a06565b9450610a9f83610e2e565b925060208a01995050600181019050610a7b565b50829750879550505050505092915050565b610ace81610e18565b610ad88184610e59565b9250610ae382610e03565b8060005b83811015610b14578151610afb8782610a1a565b9650610b0683610e3b565b925050600181019050610ae7565b505050505050565b610b2581610f0b565b82525050565b6000610b3682610e23565b610b408185610e6f565b9350610b50818560208601610f50565b610b5981611073565b840191505092915050565b6000610b6f82610e23565b610b798185610e80565b9350610b89818560208601610f50565b610b9281611073565b840191505092915050565b6000610baa600083610e64565b9150610bb582611084565b600082019050919050565b600060a0830160008301518482036000860152610bdd8282610b2b565b91505060208301518482036020860152610bf78282610b2b565b9150506040830151610c0c6040860182610c3d565b506060830151610c1f6060860182610a41565b506080830151610c326080860182610c3d565b508091505092915050565b610c4681610f37565b82525050565b610c5581610f37565b82525050565b6000610c6682610b9d565b9150819050919050565b6000602082019050610c856000830184610a32565b92915050565b60006020820190508181036000830152610ca58184610a50565b905092915050565b6000606082019050610cc26000830184610ac5565b92915050565b60006020820190508181036000830152610ce28184610b64565b905092915050565b60006040820190508181036000830152610d048185610b64565b9050610d136020830184610b1c565b9392505050565b60006080820190508181036000830152610d348187610b64565b90508181036020830152610d488186610b64565b9050610d576040830185610c4c565b610d646060830184610c4c565b95945050505050565b60006040820190508181036000830152610d878185610b64565b9050610d966020830184610c4c565b9392505050565b6000610da7610db8565b9050610db38282610fb5565b919050565b6000604051905090565b600067ffffffffffffffff821115610ddd57610ddc611044565b5b610de682611073565b9050602081019050919050565b6000819050602082019050919050565b6000819050919050565b600081519050919050565b600060039050919050565b600081519050919050565b6000602082019050919050565b6000602082019050919050565b600082825260208201905092915050565b600081905092915050565b600081905092915050565b600082825260208201905092915050565b600082825260208201905092915050565b6000610e9c82610f37565b9150610ea783610f37565b9250827fffffffffffffffffffffffffffffffffffffffffffffffffffffffffffffffff03821115610edc57610edb610fe6565b5b828201905092915050565b6000610ef282610f17565b9050919050565b6000610f0482610f17565b9050919050565b60008115159050919050565b600073ffffffffffffffffffffffffffffffffffffffff82169050919050565b6000819050919050565b82818337600083830152505050565b60005b83811015610f6e578082015181840152602081019050610f53565b83811115610f7d576000848401525b50505050565b60006002820490506001821680610f9b57607f821691505b60208210811415610faf57610fae611015565b5b50919050565b610fbe82611073565b810181811067ffffffffffffffff82111715610fdd57610fdc611044565b5b80604052505050565b7f4e487b7100000000000000000000000000000000000000000000000000000000600052601160045260246000fd5b7f4e487b7100000000000000000000000000000000000000000000000000000000600052602260045260246000fd5b7f4e487b7100000000000000000000000000000000000000000000000000000000600052604160045260246000fd5b6000601f19601f8301169050919050565b50565b61109081610f37565b811461109b57600080fd5b5056fea2646970667358221220285bfde07db5ce322b3c5ff51168847f57a629e13830ec5f3ac367da3ec85b8b64736f6c63430008040033546869732069732066726f6d2074686520636f6e7374727563746f72206f662043686565736563616b65506f7274616c20536d61727420436f6e7472616374",
  "linkReferences": {},
  "deployedLinkReferences": {}
}